{
  "contractName": "Interact",
  "abi": [
    {
      "constant": false,
      "inputs": [
        {
          "name": "sentMessage",
          "type": "string"
        }
      ],
      "name": "setMessage",
      "outputs": [],
      "payable": false,
      "stateMutability": "nonpayable",
      "type": "function"
    },
    {
      "constant": false,
      "inputs": [],
      "name": "getLastAddress",
      "outputs": [
        {
          "name": "",
          "type": "address"
        }
      ],
      "payable": false,
      "stateMutability": "nonpayable",
      "type": "function"
    },
    {
      "constant": false,
      "inputs": [],
      "name": "getMessage",
      "outputs": [
        {
          "name": "",
          "type": "string"
        }
      ],
      "payable": false,
      "stateMutability": "nonpayable",
      "type": "function"
    },
    {
      "inputs": [
        {
          "name": "initMessage",
          "type": "string"
        }
      ],
      "payable": false,
      "stateMutability": "nonpayable",
      "type": "constructor"
    },
    {
      "anonymous": false,
      "inputs": [],
      "name": "MessageWritten",
      "type": "event"
    }
  ],
  "bytecode": "0x6060604052341561000f57600080fd5b6040516104e03803806104e0833981016040528080518201919050508060009080519060200190610041929190610048565b50506100ed565b828054600181600116156101000203166002900490600052602060002090601f016020900481019282601f1061008957805160ff19168380011785556100b7565b828001600101855582156100b7579182015b828111156100b657825182559160200191906001019061009b565b5b5090506100c491906100c8565b5090565b6100ea91905b808211156100e65760008160009055506001016100ce565b5090565b90565b6103e4806100fc6000396000f300606060405260043610610057576000357c0100000000000000000000000000000000000000000000000000000000900463ffffffff168063368b87721461005c57806371a2ee52146100b9578063ce6d41de1461010e575b600080fd5b341561006757600080fd5b6100b7600480803590602001908201803590602001908080601f0160208091040260200160405190810160405280939291908181526020018383808284378201915050505050509190505061019c565b005b34156100c457600080fd5b6100cc6101ea565b604051808273ffffffffffffffffffffffffffffffffffffffff1673ffffffffffffffffffffffffffffffffffffffff16815260200191505060405180910390f35b341561011957600080fd5b610121610214565b6040518080602001828103825283818151815260200191508051906020019080838360005b83811015610161578082015181840152602081019050610146565b50505050905090810190601f16801561018e5780820380516001836020036101000a031916815260200191505b509250505060405180910390f35b80600090805190602001906101b29291906102ff565b506101bb6102bc565b7f95b5128ebf5f26ecff99176af79d5e35b77330640b44cce1b3a9bdd9d3e2b40960405160405180910390a150565b6000600160009054906101000a900473ffffffffffffffffffffffffffffffffffffffff16905090565b61021c61037f565b60008054600181600116156101000203166002900480601f0160208091040260200160405190810160405280929190818152602001828054600181600116156101000203166002900480156102b25780601f10610287576101008083540402835291602001916102b2565b820191906000526020600020905b81548152906001019060200180831161029557829003601f168201915b5050505050905090565b33600160006101000a81548173ffffffffffffffffffffffffffffffffffffffff021916908373ffffffffffffffffffffffffffffffffffffffff160217905550565b828054600181600116156101000203166002900490600052602060002090601f016020900481019282601f1061034057805160ff191683800117855561036e565b8280016001018555821561036e579182015b8281111561036d578251825591602001919060010190610352565b5b50905061037b9190610393565b5090565b602060405190810160405280600081525090565b6103b591905b808211156103b1576000816000905550600101610399565b5090565b905600a165627a7a72305820faabfd50459e4b679596abf415839f38e7faf02349441e60bf71e91c2cb7302f0029",
  "source": "pragma solidity ^0.4.4;\n\ncontract Interact {\n\n  //Storage variables\n  string message;\n  address lastSentAddress;\n\n  event MessageWritten();\n\n  function Interact(string initMessage) {\n    // constructor\n    message = initMessage;\n  }\n\n\n  //Setting and getting storage variables\n  function setMessage(string sentMessage) {\n    message = sentMessage;\n    setLastSentAddress();\n\n    // Calling the message written event, this should notify the observing UI\n    MessageWritten();\n  }\n\n  function getMessage() returns (string) {\n    return message;\n  }\n\n  function setLastSentAddress() internal {\n    lastSentAddress = msg.sender;\n  }\n\n  function getLastAddress() returns (address) {\n    return lastSentAddress;\n  }\n}\n",
  "sourcePath": "/Users/christophercoverdale/Desktop/Projects/solidity/learning-solidity/web3appexample/truffle/contracts/Interact.sol",
  "compiler": {
    "name": "solc",
    "version": "0.4.18+commit.9cf6e910.Emscripten.clang"
  },
  "schemaVersion": "1.0.1",
  "updatedAt": "2018-01-15T16:52:44.929Z"
}